:020000040800F2
:1000000000200020510600089D0600089D060008FB
:1000100000000000000000000000000000000000E0
:100020000000000000000000000000009D06000825
:1000300000000000000000009D0600089D0600086A
:100040009D0600089D0600089D0600089D06000804
:100050009D0600089D0600089D0600089D060008F4
:100060009D06000845040008590500089D06000883
:100070009D0600089D0600089D0600089D060008D4
:100080009D0600089D060008000000009D0600086F
:100090009D0600089D0600089D0600089D060008B4
:1000A0009D0600089D0600089D0600089D060008A4
:1000B0009D060008000000009D06000800000000EA
:1000C0000448054B10B5834203D0044B002B00D0ED
:1000D000984710BD0400002004000020000000002C
:1000E00006480749091A8B10C90FC91810B54910DD
:1000F00003D0044B002B00D0984710BD0400002013
:10010000040000200000000010B5074C2378002BED
:1001100009D1FFF7D5FF054B002B02D0044800E0C2
:1001200000BF0123237010BD040000200000000068
:10013000A0080008054B10B5002B03D00449054862
:1001400000E000BFFFF7CCFF10BDC046000000007C
:1001500008000020A00800080023002101E001336E
:10016000DBB20F2B06D802001A41D207F7D50131B6
:10017000C9B2F4E700230220994203D940000133B9
:10018000DBB2F9E77047000010B50B4B1B78002B72
:1001900008D0094B00221A700B780370AB2B02D0E9
:1001A000AB23037010BD4A7842708C788470C97894
:1001B000C17053400371F5E7220000204378032B00
:1001C00032D00FD8012B1BD0022B25D10B79012265
:1001D00053400B7101234B711A4A5169FF334B4055
:1001E000536119E0042B17D18B7A012253408B7293
:1001F0000123CB72134A5169FF334B4053610BE02B
:10020000C3788278120213430B8001238B700D4A4E
:100210005169FF334B405361AB230370002343709C
:10022000C370837003717047C378827812021343DE
:10023000CB8001230B72034A5169FF334B4053615A
:10024000EAE7C0460008004810B504008378002B98
:1002500013D0002383700088FFF77EFF364B1A68A7
:1002600001218A431A60D8621A680A431A60334A25
:10027000516980239B004B4053616379002B0FD061
:10028000002363712379002B4FD02D4A93681021EE
:100290000B439360294A516980239B004B40536173
:1002A000237A002B07D000232372244A516980232C
:1002B0009B004B405361E37A002B07D00023E3728D
:1002C0001E4A516980239B004B405361A37A002B47
:1002D0000FD01C4B1B78002B0BD01A4B00221A702E
:1002E000194B1B68DB0704D4174A136801210B4321
:1002F0001360E388002B17D0124A1278002A13D01B
:10030000124A1278002A0FD00E4A002111700F4AAB
:100310001170013BE3800C4B1B68DB0704D40A4AD5
:10032000136801310B43136010BD054A9368042123
:100330000B439360AEE7C046004001400008004810
:1003400000240140200000201C0002402100002069
:100350009022D205136803210B43136070470000FD
:10036000044BDA6802210A43DA60DA6801390A4389
:10037000DA60704700240140094A916980235B02DA
:100380000B439361074B0222DA62074A9A625A686A
:1003900020210A435A601A681F390A431A607047BD
:1003A0000010024000400140E7030000054BD968FF
:1003B0008022D2000A43DA60D968802252000A43C0
:1003C000DA60704700240140074A936801210B431B
:1003D0009360054B1B68DB07FBD5034A9368042138
:1003E0000B4393607047C0460024014010B5FFF7EF
:1003F000AFFF124B9969802292000A439A615A6BAF
:1004000001210A435A630E4BD868802292010243AD
:10041000DA60D868802252010243DA605A69072004
:1004200002435A619A6A0A439A62FFF799FFFFF7FB
:10043000A3FFFFF7BBFFFFF7C7FF10BD001002408F
:1004400000240140044A536802210B435360034BCC
:1004500001221A707047C0460000024020000020B0
:1004600030B5144A5369012423435361124B1A686F
:1004700080210A431A601A6870398A431A601A6820
:1004800010310A431A601E3959600C4A9A60D860CC
:100490001A680A431A600A4AC22080001158094D9E
:1004A000294011508021890011601A6822431A6086
:1004B00030BDC04600100240080002404024014008
:1004C00000E100E0FF00FFFF10B50400FFF78EFF22
:1004D0002000FFF7C5FF10BD084B1A6880210A43B2
:1004E0001A601A6870390A431A600E395960044A52
:1004F0009A60D8601A680A431A6070471C0002406C
:1005000028380140094B1A6880210A431A601A688A
:1005100070398A431A6004225A60054A9A60D8608A
:100520001A680E390A431A607047C046300002400C
:1005300024380140064BC22080001958054A11405A
:100540008022D2030A431A508022D2001A607047D8
:1005500000E100E0FFFF00FF124B1B689B060DD57A
:10056000104A536820210B4353600F4B1A681F3900
:100570008A431A6002225A600C4B1970094B1B689F
:100580009B050ED5074A516880239B000B4353609F
:10059000074B1A6801218A431A6004225A60054BEE
:1005A00019707047000002401C000240210000202A
:1005B000300002402200002010B50C00064A5369AA
:1005C00001210B435361FFF787FF2000FFF79AFFDC
:1005D000FFF7B0FF10BDC046001002409023DB05BE
:1005E0001968A02292030A431A60596A88225200AD
:1005F0000A435A6270470000074B1A680C210A43ED
:100600001A60064ADA609A68B4310A439A601A6836
:10061000BF390A431A6070470038014041030000A7
:1006200010B5054A91698023DB010B439361FFF705
:10063000D5FFFFF7E1FF10BD0010024070B50400C8
:100640000D00FFF7EDFF29002000FFF7B5FF70BD9B
:100650000C4885460C480D490D4A002302E0D45849
:10066000C4500433C4188C42F9D30A4A0A4C0023FC
:1006700001E013600432A242FBD300F06DF800F0F9
:1006800039F8FEE7002000200000002004000020D0
:10069000C408000804000020BC010020FEE70000A0
:1006A0000C4B5969802212030A435A61596980220E
:1006B00092020A435A6159698022D2021143596158
:1006C000054B1868802149020143196019680A43E3
:1006D0001A607047001002400008004810B504007E
:1006E000FFF7DEFFA11C2000FFF7A8FF2000FFF7A7
:1006F000EBFE10BD00B589B006ABAB221A7000222C
:1007000000205A70DA709A701A7103AB00211A80B7
:10071000997018715871DA8019729972D97201A89A
:10072000FFF7DCFF10E00B4A136801210B43136055
:100730006B46991D06A8FFF727FD03A906A8FFF73A
:100740003DFD03A8FFF780FD024B1B68DB07EAD5E0
:10075000EEE7C0463000024070B50D4B0D4D5E1BFC
:10076000B610AB4205D0002408CD01349847A6420C
:10077000FAD800F095F8084B084D5E1BB610AB4256
:1007800005D0002408CD01349847A642FAD870BDA0
:10079000B8080008B8080008C0080008B808000831
:1007A0007047C0467047C046034B10B5002B02D0BF
:1007B000024800F005F810BD00000000D107000855
:1007C00010B5010000230022002000F015F810BD34
:1007D00070B5074C074D641BA41005D0013CA30065
:1007E000EB589847002CF9D100F060F870BDC04676
:1007F000C4080008C0080008F0B5D6464F46464673
:100800009846244BC0B5060018689A460F009146DA
:10081000FFF7C6FF204B1D68002D32D053466C6891
:1008200018681F2C30DC002E0CD1631C0234A4008D
:100830006B606751FFF7B6FF0020E0BCBA46B146D7
:10084000A846F0BD49468822A300EB189950C42160
:1008500049008C46AC446146873AA24009689146FB
:100860001143624611608421424649005A50022ECB
:10087000DBD129004A468D31FF310B6813430B60F1
:10088000D3E7064D1D60C9E7FFF78CFF012040420A
:10089000D3E7C04600000020280000202C000020E4
:1008A000F8B5C046F8BC08BC9E467047F8B5C046CF
:0808B000F8BC08BC9E4670472D
:0808B800A90700083501000842
:0408C0000901000822
:0408C40024000020EC
:040000050800065198
:00000001FF
